:1010000000020020E9330000753300008533000042
:1010100095330000A5330000B53300000000000048
:101020000000000000000000000000005933000034
:10103000C5330000000000000D330000D533000070
:1010400023370000B12800002337000015350000C9
:10105000313500002337000023370000233700001C
:101060002337000023370000233700002337000018
:101070002337000023370000233700002337000008
:1010800023370000233700002337000023370000F8
:1010900023370000233700002337000023370000E8
:1010A00023370000233700002337000023370000D8
:1010B000233700002337000000000000000000007C
:1010C0002337000023370000233700004D35000090
:1010D000233700002337000023370000613C000065
:1010E00023370000233700002337000000000000F2
:1010F00000000000233700000000000069350000F8
:10110000F0B50C4E87B004460D46012701A801F04A
:1011100017FE049B1B1B002B08DAB764D6F8483572
:101120005B1B002B02DA01F0D1FDEFE701F0CEFDF1
:1011300007B0F0BD00A0014070B5084D044601267F
:10114000AE64D5F84835E31A002B03DCBDE87040E7
:1011500001F0BCBD01F0BAFDF2E700BF00A0014004
:10116000F0B5144B144D1B68144E154F8DB0002470
:101170002822632102A8ADF801408DF803400193B5
:1011800004F0CAF82B79E1B28B4201D80DB0F0BD62
:1011900069B14B1E734303F1AA33B3F1553F06D235
:1011A00030236A4638468DF8001001F0C0FA013449
:1011B000E8E700BFD402002000020020ABAAAAAAE0
:1011C000B003002008B501F081FC10F1100F06D02B
:1011D000002803DA034AD3690133D36108BD002034
:1011E000FCE700BFD8020020034B04481B780BB17A
:1011F00000F0C9BF00F03ABF00020020D802002072
:1012000030B50378022BA3B005462ED1424A43687D
:101210001178E9B100211170404A12689B1AB3F5A8
:10122000945F15D23E4C3F48216829B1C26802EB59
:101230004202023213449B08C36003F5C073B3F546
:10124000A06F38BF4FF4A0630131C3618362216096
:10125000354A1388472B85BF344A1368013301335D
:1012600094BF1380136023B030BD042B05D13048E8
:1012700023B0BDE8304003F0B3BE012BF3D12D4CB9
:10128000D0F888102378083093B906AA00F011FD31
:1012900050B1244B6A6806A9204600F064FE18B1DC
:1012A000A3680133A360DEE7E3680133E360DAE7B4
:1012B000012B14D106AA00F082FD30B9A36D0133D1
:1012C000A365E36C0133E364CDE7164B6A689DF8D0
:1012D0001810204600F083FF0028C4D1F1E706ABC8
:1012E00003AA00F03AFD50B9D4F894300133C4F8A1
:1012F0009430D4F888300133C4F88830B3E7094B10
:1013000001936B6800930C4906AB03AA204601F0D9
:10131000D6F80028A7D1ECE7C0020020C4020020C4
:10132000C802002000020020D0020020CC020020D1
:1013300018680000D8020020B003002070B50A4DE4
:101340000446012601F0F8FB103003D0BDE87040E0
:1013500001F0BCBCAE64D5F848351B1B002BF5DA98
:1013600001F0B4FCEEE700BF00A001402DE9F84316
:10137000194D2B783BB9D5E908431C442B795C43C4
:101380002046BDE8F883DFF85480D8F88040002C70
:10139000F6D127464FF039092B79FEB2B342EFD987
:1013A0003146404600F0F2FEA0B1464496F86C206B
:1013B000A2F109036E2B04D8D5E90B3101FB0233EE
:1013C0001BB9D5E90B3209FB02336A6A22449C1827
:1013D0000137E1E73922EFE700020020D8020020C0
:1013E0002DE9F04FBA4DBB48AA78DFF820B3CFB053
:1013F00028243023CDE9034308262B7802930427C1
:10140000CDE90067B44B032104F01CFC4EF240739D
:10141000CDE90C430A225023CDE90923CDE9076326
:10142000EB68AE480B97FB40069301264FF412730E
:10143000CDE90436D823CDE902432323D3224FF448
:101440009471CDE900434FF4267304F0FBFB01F0E7
:1014500021F901F095FA0021A148A24C01F0CEFA41
:1014600001F0D6FAA048032101F049F903219E4872
:1014700001F04AF99B48002100F0CBFCFFF770FE19
:101480009A4A002313609A4A13609A4A13609A4A50
:101490001370CBF84860DBF84835944F97483B68A9
:1014A00001333B60964B00261E80964B1E6001F078
:1014B00047FC8D4801F016F92B79F1B28B4200F20E
:1014C0008081FFF74DFE0023009319462A462046EF
:1014D00000F0B1FC0123CBF84830DBF84865DFF8B9
:1014E0003082804800F0E3FC28B1204600F0EAFC9E
:1014F000002800F06B81204600F0D9FC002840F065
:10150000DA81204600F0B2FD2B7806467BB1024618
:1015100075492B46204600F0ACFD204600F0F0FD5A
:10152000002840F0F281204600F02DFE064601F032
:10153000CDFB2A463146204600F0C7FE2B788BB102
:10154000204600F0E8FD68B9FFF710FF0123CBF853
:101550004830DBF8483506EB0010C31A002B01DDDC
:10156000FFF7EAFD204600F00DFF002840F0A082C2
:10157000204600F024FF2B781790002B00F06983A1
:10158000204600F073FD804630B10123CBF848308F
:10159000DBF84835A3EB0008534801F02AF98146EF
:1015A000514801F029F98246FFF7E0FED4E91673AD
:1015B0001F44236E18901F44636E4A481F44A36E55
:1015C0001F44D4E925329E18D4F89C301E44D4F828
:1015D000A0301E44D4F8A4301E44D4F8A8301E44D1
:1015E000D4F8AC301E44D4F8B0301E44D4F8B43033
:1015F0001E44D4E907231343626D1343E26C134383
:10160000D4F890201343D4F888201343D4E904215C
:101610000A44A1690A4413433B4333432393334BA6
:101620001B6825936368199363781A9394F829309B
:101630001B93B4F92A301C93A3681D93E3681E938F
:10164000A38F1F93D4F88430A16C2093D4F88C30EE
:101650002491219300F007FD2290FFF7C5FD244A55
:10166000249913681593229BEA6808910009139046
:101670001809189B12904FEA181011901809109031
:10168000DD234FF49470CDE90E03179BCDF82C9019
:10169000CDE90CA3219B0A93209B0993179B0793E9
:1016A0001F9B06931E9B05931D9B049312091C9B75
:1016B000149203931B9B02931A9B0193199B009313
:1016C000054A259B1048032104F0BCFA239B21E026
:1016D00000020020396800003068000094680000B3
:1016E00001120000D8020020B0030020D402002024
:1016F000C8020020C4020020C0020020AC0200206A
:10170000D0020020CC020020EA6B000000A00140C3
:101710000024F400002B3AD00796D4F888300693C2
:10172000D4F89030B348CDE90473E36C0393636D50
:101730000293E3690193A3690093D4E90423216A26
:1017400004F080FA4FB1A36E0193636E0093D4E965
:101750001723A16DA84804F075FAC6B1D4F8B430C7
:101760000593D4F8B0300493D4F8AC300393D4F894
:10177000A8300293D4F8A4300193D4F8A030009399
:10178000D4E92623D4F894109C4804F05BFAD145A0
:1017900013D230A801F0D4FA9948D0E901230168A6
:1017A00006693498801B00903298C31A3198821AC7
:1017B0003098411A934804F045FA934803F010FC1E
:1017C0006BE6924800F0A0FF013675E6FFF7FAFCE1
:1017D000011E06DAE269D3B2012B02D18C4804F073
:1017E00031FA4FF0010901F071FACBF84890DBF8BB
:1017F00048359B1B4345FFF674AE3A688548032184
:1018000004F020FACBF8489067E600F58059002FE5
:101810004DD0002728AA29462046CDE92B77CDF8C0
:10182000B37000F073FB70B9236901332361DBB23D
:10183000012B02D1784803F0D3FB01222946204630
:1018400000F0DFFB57E628AA0B212BA800F012FAC4
:101850000028E9D030A801F073FA339B03F10108A6
:101860006E4B1E606E4B32460B212BA883F800A0F6
:1018700001F082F9002811DA694B1F7023690133E6
:10188000DAB2012A236109D1CBF84820DBF84815E8
:10189000644800933246731A04F0D4F94846FFF7BF
:1018A0004BFC06F594514046FFF72AFCC5E7484635
:1018B000FFF742FC27E0204600F004FB00283FF43D
:1018C00020AE204600F004FB4FF0010A07462946EF
:1018D000204600F00BFBCBF848A0DBF84885A8EBCE
:1018E0000003002B064690DB236A53442362DBB2DD
:1018F000534508D1204600F0F5FA334601464246EA
:10190000494804F09FF93A4698E7204600F009FC60
:1019100029461890204600F025FC4FF0010A6A691C
:10192000EF69CBF848A000EB0209DBF848351793C4
:1019300007440646204600F006FCA9F50C78179BE4
:10194000A7EB0802002AC8BF47469A1B002A189B2B
:1019500018DB636D53446365DBB253450DD12046FC
:1019600000F0E9FB0746204600F0E9FB179B0096D4
:10197000024639462D4804F065F92946204600F014
:1019800071FCCAE5002B57D0002330A920468DF802
:10199000AC3000F009FC08B9404628E09DF8C020B2
:1019A00051462BA800F004FA0028F5D032465146E3
:1019B0002BA801F0E1F8002812DA636901336361B2
:1019C000DBB2012BD9D11A4800F0B5FB0646184806
:1019D00000F0B5FB31460246164804F033F9CCE777
:1019E00006F53060A0EB0803002BC8BF4046FFF7A8
:1019F000A3FBC2E7D36C0000486D0000796D0000C6
:101A0000AC020020CB6D0000466D0000B00300204A
:101A100076690000A9690000FF690000C402002087
:101A2000C0020020226A0000CE690000716A000036
:101A3000D8020020AE6A00001790204600F06BFB31
:101A400017990028A8D1FF29A6D0204600F09EFBB8
:101A50000028A1D1CBF848A0DBF84805331AB3F52C
:101A6000A06FC8BFA6F5A060FFF766FBFFF7AAFB53
:101A700000280BDB3846FFF75FFB01F05DF8103004
:101A80007FF47BAF4846FFF759FC76E7237F012BB5
:101A90007FF473AF704800F04EFB06466E4800F0CE
:101AA0004EFBE369024631466C4804F0CBF864E72C
:101AB000204600F072FC29461890204600F0AEFC4B
:101AC00029460746204600F08DFC4FF0010AAA6A1D
:101AD000CBF848A000EB0208DBF848351793064620
:101AE0000744204600F06FFCA7F52079179BA8EB70
:101AF0000902002AC8BFC8469A1B002A189B014643
:101B00001ADBD4F890305344C4F89030DBB253451C
:101B10000DD1204600F04BFC0746204600F04BFC60
:101B2000179B0096024639464D4804F08BF829462B
:101B3000204600F043FD15E5002B56D0002177220A
:101B400030A8279103F0E8FB27AB0093454928AB69
:101B50002A46204600F075FC18B94846FFF7ECFA13
:101B6000E5E7279B28AA772130A800F0CAF848B9F2
:101B7000A3690133A361DBB2012BD8D13A4803F04A
:101B80002FFAD4E72BA801F0DBF89DF8A410DDF8BC
:101B9000B8803246093130A800F0EEFF002812DA92
:101BA000A3690133A361DBB2012BC0D12A4800F045
:101BB000FEFB0646284800F0FEFB314602462B4855
:101BC00004F040F8B3E79DF8A4001E3006EBC01007
:101BD000A0EB0903002BC8BF4846FFF7ADFA394612
:101BE00008F10100FFF78CFAA1E7FF28B5D01D48E6
:101BF00000F0F5FD0028B0D1CBF848A0DBF848058F
:101C0000331AB3F5A06FC8BFA6F5A060FFF794FA2A
:101C1000FFF7D8FA00280ADB4046FFF78DFA00F0FC
:101C20008BFF103083D13846FFF788FB7FE7237F97
:101C3000012B7FF47CAF204600F0B9FB064620461E
:101C400000F0B9FBE36902463146094803F0FAFFA8
:101C50006DE7FFF7C9FA96E4D8020020E46A0000B5
:101C6000226B0000B00300205B6B00007E6B000065
:101C7000B06B0000E0B1D2B10A2918D95423037027
:101C8000432343705323837001213123C3700171B7
:101C90005379437193798371D2F80730C3711A0A6B
:101CA00002721A0C1B0E42728372084670470020A3
:101CB000704728B31AB3102921D9817954291ED12C
:101CC000C379432B1BD1037A532B18D1437A312B81
:101CD00015D1837A012B12D11170C1795170017A1B
:101CE0009170417AD170817A1171C17A5171017B01
:101CF0009171D0F80D10C2F80710184670470020F7
:101D0000704738B50C46194610B312B313796E2BD1
:101D10001FD803F10905A5421BD803B1D9B102238D
:101D200003705378437093788370D378C3701379BA
:101D30000371D2F8053043711C0A84711C0C1B0E10
:101D4000C4710372127912B1093003F011FE01203F
:101D500038BD0020FCE70846FAE738B504461546CA
:101D600018460CB9002038BD002AFBD00E29F9D93D
:101D7000A379022BF6D11370E3795370237A937011
:101D8000637AD370A27A2A71D4F80B30C5F8053083
:101D90006E2AE7D802F1090306398B42E2D800B176
:101DA0000AB90120DFE704F10F0103F0E1FDF8E7D4
:101DB00020B111B10270012070470846704738B158
:101DC0002AB1072903D183791370012070470020BD
:101DD000704730B5B8B190F837508D4217D9A2F19D
:101DE00009036E2B13D8014491F870307BB901249C
:101DF00081F8704081F86C20838F23449BB2AB4202
:101E0000838701D2012030BD80F83640FAE70020F8
:101E1000F9E738B50D46044660B1D822002103F039
:101E20007BFA012384F824304FF6FF7384F82550A1
:101E30006385657038BDF8B50D4616461F460446E5
:101E4000A0B30E220021263003F066FA40220021C2
:101E500004F1340003F060FA6422002104F17400FC
:101E600003F05AFA069B67700021C4E90131C4E906
:101E70000311C4E90511C4E907110123217084F895
:101E8000243084F82570B27884F829204FF6FF7248
:101E900062855FB1E56284F82630F3783169B26813
:101EA0005B00DBB20D4402FB03552563F8BD03461E
:101EB00038B190F8240020B11878B0FA80F04009C9
:101EC0007047704708B190F8260000F00100704795
:101ED000034620B190F8240008B193F8250000F0E3
:101EE0000100704708B190F827007047034650B1D1
:101EF00051B190F8260040B193F827208968D86A3C
:101F000001FB0200704770470846704770B50346F2
:101F100038B331B32AB390F8240008B393F82500FE
:101F2000F0B193F82850CC78AC421AD95C8D0134CA
:101F300024B254265C85167043265670532696703C
:101F40003126D670012616714978517194715968FD
:101F5000C2F807103544002283F8285083F8252062
:101F600070BD0020FCE7F0B50446002847D00029EA
:101F700045D0002B43D090F82400E8B10D79012D15
:101F80003DD14E795D78AE4239D0676894F82650DD
:101F9000D1F8076017B10DB1B74230D16660B4F91E
:101FA0002A608979002E01DBB14200DD618525B10F
:101FB00094F827308B421FD3F0BDD3E902C5521BE2
:101FC00001270CFB112284F82670E262DE781B697F
:101FD000677006FA07F5EDB20CFB05331344236373
:101FE00094F82830B34239442CBF0023012384F8ED
:101FF000271084F82530DFE784F82710DCE700207D
:10200000DAE710B5034648B359B390F8240028B373
:10201000CC786000C0B212BB93F826202AB193F8A6
:102020002820A2422CBF0022012283F8252093F809
:1020300027200132D2B2824283F827200CD300221B
:1020400083F8242093F8262032B10C69DA6A896873
:10205000224401FB00221A6393F8240010BD0022E1
:10206000E3E70846FAE700B1C06A704700B1006BC9
:102070007047F8B50F4616461D46044658B353B38D
:1020800040220021343003F047F901232370AB785C
:10209000DB4303F0010384F83530297984F83710E5
:1020A000D5E9053226641344EA78286952004B4387
:1020B000D2B2064402FB03666378666413B10B1E5A
:1020C00018BF012384F834302FB1002694F837303C
:1020D000F5B2AB4200D8F8BD2946384600F075FB92
:1020E00060B1437853B1827842B16E2A9ABF093207
:1020F000D2B2772229462046FFF76BFE0136E5E78C
:10210000034638B190F8340020B11878431E584285
:1021100058417047704708B190F8360000F0010050
:102120007047034620B190F8340008B193F83500A9
:1021300000F00100704708B190F83800704708B10E
:1021400090F839007047034650B190F834203AB106
:1021500090F8390093F83730834298BFFF207047DA
:10216000FF207047034658B159B190F8340048B188
:10217000D1E90521186C0A44598F01FB0200704710
:1021800070470846704700B1406C704758B190F8EE
:1021900037308B4206D9084490F87000003818BFD9
:1021A000012070470020704738B5044698B191B1BE
:1021B00090F834506DB190F8355055B1FFF7C3FF2A
:1021C000FF2808D0044494F8703033B194F86C3090
:1021D0000B70284638BD0025FBE71D46F9E72DE9C1
:1021E000F041884615461E46044648B143B190F872
:1021F00034302BB190F835302BB1C36D0133C3654A
:102200000020BDE8F081A1F109036E2B03D9036E14
:1022100001330366F4E7FFF796FFFF28074603D173
:10222000A36D0133A365EBE731462046FFF79AFF24
:102230002D1A02D4F369AB4203DA636E013363668D
:10224000DEE7424639462046FFF7C3FD18B9A36EC4
:102250000133A366D4E7A36C0133A364236D013378
:102260002365CEE710B5034640B139B190F834008C
:1022700020B193F837401CB983F83440002010BDDA
:102280005A8F01325A8793F839200132D2B2A242D2
:1022900002D283F83920F2E793F8382093F835001A
:1022A00001320024D2B280F0010083F8350083F8B7
:1022B000394083F83820C9784900C9B28A4228BF1A
:1022C00083F8344093F83400D9E7F8B50E46154644
:1022D0000446F8B1F2B164220021743003F01CF816
:1022E00002232370AB786278DB4303F0010384F8A8
:1022F00075302B7984F87630E6675AB153B10122F4
:1023000084F874202A785AB394F836201AB9002336
:1023100084F87430F8BD002104F16B0E04F1B40CA4
:1023200008461EF8016F9EF80420002AEFD0A6F19F
:1023300009026E2AEBD8D5E90B2707FB0622002AF3
:10234000E5D0CCF814104CF8042F01306E6AC0B2FE
:10235000324483421144E4D1C4F880100123D7E70A
:10236000D5E908601146304404F1B4050131C9B221
:102370008B426A6145F8046F0244F7D14343C4F8C5
:102380008030C7E7034638B190F8740020B1187860
:10239000831E5842584170477047034620B190F859
:1023A000740008B193F8750000F00100704708B19F
:1023B00090F87700704708B190F87800704708B13E
:1023C00090F876007047034650B190F874203AB107
:1023D00090F8780093F87630834298BFFF207047DA
:1023E000FF20704710B50346B0B1A9B190F8740052
:1023F00088B193F8782093F8761091420CD903EBCA
:10240000820293F87700D3F88040D2F8C81004FB1A
:102410000011D86F084410BD0020FCE740B149B15D
:1024200090F8783090F876209A4205D8086A70477C
:102430000029FBD10846704700EB8300D0F8B800B4
:1024400070472DE9F041069F88461C46054610B9A5
:102450000020BDE8F0810029FAD0002BF8D0002F31
:10246000F6D090F87430002BF2D090F87530002B35
:10247000EED090F87630002BEAD0FFF7A4FFFF28CB
:102480000646E5D00146404600F09FF90346002885
:10249000DED040780028DBD09A78002AD8D00221FC
:1024A0002170667095F87710A17095F87810E1703A
:1024B00022716A68C4F8052003333B60C9E72DE93F
:1024C000F84F0E461546DDE90A719946044678B183
:1024D00076B16AB161B190F87480B8F1000F07D09D
:1024E00090F875304BB1D0F898300133C0F898307F
:1024F0004FF000084046BDE8F88F1378022B05D056
:10250000D4F89C300133C4F89C30F1E792F804B061
:10251000BBF16E0FF4D892F801A04B78534505D16A
:10252000D0F8A0300133C0F8A030E1E7D2F80520A0
:1025300043689A4205D0D0F8A4300133C0F8A430E3
:10254000D6E7AA7890F877309A4205D0D0F8A8302C
:102550000133C0F8A830CBE7EA7890F878309A4297
:1025600005D0D0F8AC300133C0F8AC30C0E70B91E7
:10257000FFF738FF3F1A03D40B998B6ABB4205DA89
:10258000D4F8B0300133C4F8B030B1E7D4F88430B7
:102590000133C4F884304A465B465146304600F069
:1025A000EDF828B1D4F88C300133C4F88C30A1E7B1
:1025B000D4F8B4300133C4F8B4309BE710B5034607
:1025C00040B139B190F8740020B193F876401CB94D
:1025D00083F87440002010BDB3F87A200132A3F8CC
:1025E0007A2093F878200132D2B2A24202D283F844
:1025F0007820F0E793F8772093F8750001320024F3
:10260000D2B280F0010083F8750083F8784083F837
:102610007720C9784900C9B28A4228BF83F874403C
:1026200093F87400D7E700001548026832BB154BD9
:102630000321C3F80425C3F80815C3F810250122A7
:10264000DA601A6003F5A0430F49C3F888150F49F3
:10265000C3F88C154FF40041C3F804150C49C3F8B6
:10266000801501F5C73101F5A071C3F88415D3F8C1
:10267000041541F48041C3F804150260002070473E
:102680007C05002000A0014040A101400010004056
:1026900004110040FFF7C8BF014BD3F84405704751
:1026A00000A001400D4B1B6810B504460BB9FFF7A5
:1026B000BBFF0B4A01239364D2F84815631A002B21
:1026C00009DD0020802BACBFC9188031C2F8400161
:1026D000C2F8401510BD4FF0FF30FBE77C0500202D
:1026E00000A0014010B5044640B14FF4E272002151
:1026F000063002F011FE00236380A38010BD10B1EC
:102700000170FFF7EFBF704780B103290DD8C1EB0F
:10271000C10301EB031101448B7923B901238B71B0
:10272000438801334380012070470020704770B513
:102730000C461E461146F0B1F2B1013B6D2B1BD881
:10274000032C19D8C4EBC40304EB03140519AB79AB
:1027500023B90123AB71438801334380EB7913B96B
:1027600083880133838009343246204403F000F922
:1027700001202E72E87170BD0020FCE770B50C4698
:102780001E461146F0B1F2B1013B6D2B1BD8032C54
:1027900019D8C4EBC40304EB03140519EB7993B9FE
:1027A000AB7923B90123AB7143880133438083881C
:1027B0000934013383803246204403F0D9F80120E4
:1027C0002E72E87170BD0020FCE738B1032904D8EF
:1027D000712303FB0100063070470020704738B1B9
:1027E000032904D8712303FB0100C079704700203E
:1027F000704700B18088704700B140887047000082
:10280000F8B51A4C9E462668194B01361B6806F02F
:102810001F06B342844604D1164A1368013313607D
:10282000F8BD2368144D8C277B437F2A05F803C02D
:10283000236807FB035C2368CCF804E007FB035321
:10284000944628BF4FF07F0CC3F888C059B152B1ED
:102850002068236807FB005007FB03550830D5F8B4
:10286000882003F085F82660DAE700BF84050020A1
:102870008005002008170020880500200A4B0B481F
:10288000012110B59964D3F84845D0F810210AB158
:10289000002010BD9964D3F84825121BB2F5F06FE3
:1028A000F3DD6FF07300F4E700A00140001000407A
:1028B000F8B5274BD3F804212AB10022C3F804212C
:1028C000244A01211160D3F80C21A2B1224A00242C
:1028D000C3F80C411168C1B1204B1460204A1C6040
:1028E000136801331360FFF7D7FE224603462146E3
:1028F0000220FFF785FF1B4B1B682BB11A4B4FF0D3
:1029000080525A60BFF36F8FF8BD184D2A68002AB5
:10291000F1D017490A6801320A60D3F8003493B144
:10292000144E7778FFF7B8FE13490C68013403465C
:102930000C603A46B11C0120FFF762FF054A0023F4
:102940002B601360D7E70D4A136801331360F5E776
:102950000010004020170020281700202C1700200E
:102960000C1700203C25002000ED00E0241700207B
:10297000181700203017002014170020101700200F
:102980000F4B002018600F4B18600F4B18600F4B57
:1029900018600F4B18600F4B18600F4B18600F4BEF
:1029A00018600F4B18600F4B18600F4B18600F4BDF
:1029B00018600F4B18600F4B18600F4B1860704772
:1029C000401900203C190020381900202C17002045
:1029D0002817002024170020201700201C17002093
:1029E0001817002014170020101700200C170020C3
:1029F000081700208405002080050020024B186085
:102A0000024B002019607047401900203C1900203B
:102A100038B54FF080430022C3F8002101221A602C
:102A2000D3F80021002AFBD0224B002401250321EA
:102A300040F20122C3F8FC5F1D61C3F81041C3F8E6
:102A40000C41C3F80441C3F81015C3F85026042202
:102A5000C3F80C2505200222C3F80825C3F8540545
:102A6000A720C3F824051448C3F81C054FF484704C
:102A7000C3F82C45C3F83055C3F814050F48C3F804
:102A8000180540F20310C3F834050D48C3F83C059F
:102A900040F25B60C3F83805C3F800120A21C3F89E
:102AA0000413084B1A60FFF7BFFD074B20461D605B
:102AB00038BD00BF0010004000D9C5B3FF000302BD
:102AC0005555550000E100E03819002038B5144B89
:102AD0001B6813B3134B1C681CB16FF00F04204626
:102AE00038BD114D2B68002BF9D1104BD3F8502570
:102AF00052B90E4A0E4BC2F804350E4B0021196034
:102B0000012353602B60EAE70122C3F810411A61E8
:102B1000FFF7B4FE0028ECDADFE76FF00A04DEE727
:102B2000381900202C170020241700200010004026
:102B300030170020201700200B4B1B686BB10B4A8D
:102B4000136843B10A4B1B6853B91360094AC2F8B2
:102B5000103101231361002070476FF00A007047A5
:102B60006FF00F00704700BF3819002024170020B5
:102B700020170020001000404A4B1B682DE9F74346
:102B800007460C469046002B00F0898018B9E1B149
:102B90006FF0150065E0FC2917D96FF0790060E04F
:102BA000DEF80010591AB1F5FA4F07DD0023336043
:102BB00013603D4A1360CCF810501FE0A8EB0303EC
:102BC000802B0ADC6FF00F004BE0384E3848DFF8FE
:102BD000E8C0384ADFF8ECE00125336873B185645A
:102BE000D0F84835DCF85015D2F80090B9F1000F54
:102BF00001D00029D4D10023336013602A4A13681E
:102C0000002B31D12C4BD3F85025002A3AD12B4D33
:102C100002232B70A31D6B70294B18689B88ADF89D
:102C20000430BDF8043000902246C5F80200394651
:102C300005F10800EB8002F09BFE1F4B1C4A1D4C67
:102C4000C3F8045501233360236093641D4BD2F80D
:102C500048251A604046FFF725FD00284FF0000088
:102C60001ADB03B0BDE8F08300231360164A13603B
:102C7000114AC2F8103101231361FFF7FFFD00284C
:102C8000C0DA9FE70022C3F8102101221A61FFF782
:102C9000F5FD0028BBDA95E73060206092E76FF021
:102CA0000A00DEE738190020241700202C17002026
:102CB00000A0014028170020001000403418002018
:102CC000F16D00001C17002020170020F0B5174CF4
:102CD000174F184EC7B022683B689A4201D035683A
:102CE0000DB947B0F0BD144B21688C2202FB0131B5
:102CF000684602F03DFE2368019A9DF80010249278
:102D0000013303F01F032360229B8DF88C107F2B6F
:102D10001A4628BF7F2245921BB102A925A802F0BE
:102D200027FE064B23A81968A847D4E78005002092
:102D30008405002040190020880500203C1900204F
:102D400070B1084B1B680360074B1B684360074B5F
:102D50001B688360064B1B68C360064B1B680361DE
:102D6000704700BF1817002014170020101700200C
:102D70000C1700200817002070B5064E064CA41B47
:102D8000A4080025AC4200D170BD56F82530984704
:102D90000135F7E7D06F0000D46F000013B50020B5
:102DA00000F048FF084C0146204601F07FFF204616
:102DB00001F07AFA054B0648009401224FF4806135
:102DC00001F080FF02B010BD44190020F86D000032
:102DD000F41A0020704700004FF080435722C3F8D8
:102DE0001C25BFF34F8F0549054BCA6802F4E0620A
:102DF0001343CB60BFF34F8F00BFFDE700ED00E052
:102E00000400FA0508B5FFF7B7FF034802F0E8F839
:102E1000FEF7E6FA002008BDFE6D00001FB5EFF3D7
:102E2000108372B6074B029300230193064B009365
:102E3000072204234FF4C061044800F089F900F030
:102E40004FFA00BF416E0000052E0000F41E002066
:102E500008B500F0A3FFBDE8084001F039BA70479B
:102E600008B50B4B1A680C4652B901221A60FFF7DD
:102E7000F6FF0848214602F0E5FE074802F0B0F8E8
:102E8000EFF3108372B600F0E3F900F0E3F900BF4E
:102E9000F4240020466E0000626E000038B504463F
:102EA000EFF3108572B6006810B985F3108838BD4D
:102EB000431C02D100232360F7E750F80C3923604C
:102EC0000C2100F069F8236813B94FF0FF33236039
:102ED00085F31088034B4FF080525A60BFF36F8F19
:102EE000E5E700BF00ED00E0026810B54AB11368E5
:102EF0008B4207D19A4202D10023036001E01B6894
:102F0000136010BD13461B681C68A14202D09A4290
:102F1000F9D1F6E7002BF4D00A681A6002689142F2
:102F2000EFD1EAE770B5174D174E2B68346833BB05
:102F300024B123790B2B04BF0C23237100F014FA66
:102F40002B68002BFAD00023104A002111602A6858
:102F50000F49B2FA82F251F8222010680C380B2285
:102F6000844202710AD023B11A790B2A04BF0C22C1
:102F70001A71084BB0F906201A80306070BD2346E4
:102F8000E2E700BFF8240020402500203C25002077
:102F9000FC240020CC25002070B50A2903790446C2
:102FA0000D461AD90A2B14D84279174B00F10C019F
:102FB00053F8220078B10068E06053F82200016005
:102FC00043F8221011494FF00043D3400A681343DD
:102FD0000B60257170BDE160F2E70A2BF9D94079E9
:102FE000094E04F10C0106EB8000FFF77DFF6379C9
:102FF00056F82320002AECD104494FF00042DA4071
:103000000B6823EA0203E3E7FC240020F8240020F5
:103010000B4B1B685A791B790A2B01D982420DD9B7
:10302000EFF30583DBB21BB1064B01221A60704738
:10303000054B4FF080525A60BFF36F8F704700BF4F
:10304000402500203C25002000ED00E008B5EFF30E
:10305000108372B6094B0A4A1B880A4D1BB2002422
:1030600042F82340084A286813682146013B136050
:10307000FFF792FF2C6000F033F900BFCC25002051
:1030800048250020402500204425002010B5034697
:10309000EFF3108472B6028902EA010022EA01020B
:1030A0001A8184F3108810BD0C4A034610B51068CD
:1030B000EFF3108472B6028913420CD10361072129
:1030C000FFF76AFF84F31088054B4FF080525A6077
:1030D000BFF36F8F10BD84F31088FBE740250020FD
:1030E00000ED00E038B5054B1D680446FFF7DCFF36
:1030F00021462846BDE83840FFF7C8BF40250020DC
:1031000010B5EFF3108472B6038902791943072AC8
:10311000038A018104D0082A13D084F310880FE0B9
:103120001942FAD00C21FFF737FF074B01221A6032
:1031300084F31088054B4FF080525A60BFF36F8FB5
:1031400010BD8B43E9D1EDE73C25002000ED00E008
:103150000F2A2DE9F84316461F4627D810F003031F
:103160001EBF0439C918C3F10402A1F1280118BF18
:10317000801821F00303C418EFF3108972B6224AB5
:103180000125114652F8048FB8F1000F11D0013516
:10319000212DF7D189F310886FF08A0531E00221E3
:1031A0002046FFF7F9FE89F310882AE06FF0150535
:1031B00027E02DB2024641F82540DDE90801E5800F
:1031C00000F05AF8114A20604FF0FF33C4E9083884
:1031D0001368667101331360FB07C4E90388C4E90F
:1031E000058884F80480C4F81C80D8D40C212046BB
:1031F000FFF7D2FE7A07D6D489F310883046FFF75E
:1032000007FF2846BDE8F883482500204425002014
:103210000C4B0D4A10B540219A600C4CE02283F80B
:103220002220D9770022A0180132302A80F800131A
:10323000F9D11A6942F010021A615A6942F4007217
:103240005A6110BD00ED00E00010000000E100E058
:1032500070470000BFF34F8F0549064BCA6802F460
:10326000E0621343CB60BFF34F8F00BFFDE700BFA9
:1032700000ED00E00400FA051A4422F0030210B544
:103280004FF0773442F8044C540758BF4FF088345D
:10329000A2F104035CBF42F8084CA2F108034FF00E
:1032A000807243E902020D4A43F80C2C00200322ED
:1032B00043E9052043F8201C01220224194643E972
:1032C00007246FF0020241F8242D0B2241F8042D4F
:1032D000013A032AFAD1A3F1440010BD4D30000099
:1032E0000023E1EE103AEFF3148323F0040383F399
:1032F0001488BFF36F8FEFF3108362B6024B4FF069
:1033000080525A60BFF36F8F00ED00E0114910B595
:103310000C6872B6FFF706FE62B6A04208BF10BD89
:103320002146BDE8104049B1EFF309821EF0100FAD
:1033300008BF22ED108A22E9F04F0A600068B0E869
:10334000F04F1EF0100F08BFB0EC108A80F3098810
:103350007047000040250020024B4FF080525A6019
:10336000704700BF00ED00E030BF62B6BFF36F8F63
:1033700072B6704708B502490620FFF771FD00BF1D
:10338000746E000008B502490720FFF769FD00BF11
:10339000806E000008B502490520FFF761FD00BFFF
:1033A000936E000008B502490820FFF759FD00BFE1
:1033B000A66E000008B502490920FFF751FD00BFC5
:1033C000B86E000008B502490A20FFF749FD00BFAA
:1033D000CC6E000008B502490B20FFF741FD00BF8D
:1033E000DE6E000070477047174A08B5D2F8883083
:1033F00043F47003C2F88830FFF7F4FF134B14480E
:10340000DA1C121AC11E22F00302994288BF002260
:10341000104902F0ADFA104B1048DA1C121AC11E06
:1034200022F00302994288BF0022002101F074FFBC
:10343000FFF7D9FF00F030F8FFF7CCFC01F060FD9A
:10344000BDE80840FFF7EABC00ED00E0AC02002058
:1034500000020020647000001C2A0020AC02002042
:1034600070474FF0704393F8E02F062A12D1D3F83B
:10347000E40F10F00F000DD1D3F8E82F02F0F002A6
:10348000302A08D1D3F8EC3F13F0F00F0CBF012025
:10349000002070470020704708B5FFF7E2FF30B109
:1034A000134AD2F8FC3023F08073C2F8FC30FFF7E7
:1034B000D8FF20B14FF080430322C3F8A025FFF7C7
:1034C000D0FF30B14FF080430022C3F80C21C3F885
:1034D0001021FFF7C5FF074B0122C3F84025FFF776
:1034E00097FEFFF7B5FCBDE8084000F06DBC00BFDB
:1034F00000ED00E000E00140044B1B682BB1044BE1
:103500004FF080525A60BFF36F8F70473C25002008
:1035100000ED00E008B5044A044B10681B689847AA
:10352000BDE80840FFF7E8BFD0250020E0250020D7
:1035300008B5044A044B50685B689847BDE80840EA
:10354000FFF7DABFD0250020E025002008B5044AA7
:10355000044B90689B689847BDE80840FFF7CCBFD4
:10356000D0250020E025002008B5044A044BD0688F
:10357000DB689847BDE80840FFF7BEBFD0250020B4
:10358000E02500200346006838B10268904219BF68
:10359000136803600021196010467047EFF3108232
:1035A00072B60B6833B903685BB11B680B600368C4
:1035B00019600160406882F3108820B10121FFF793
:1035C0009FBD0960F5E7704710B5EFF3108472B640
:1035D000FFF7D8FF84F3108808B10023036010BD03
:1035E00038B1054B0A0901F00F019A5C5B5C02706F
:1035F00043700220704700BF1A6F0000F8B50D46F7
:103600005700064610B18C18A54201D13846F8BDC6
:10361000304615F8011BFFF7E3FF0644F4E738B521
:10362000054600F00EFC044605F11000FFF736FCDD
:10363000204638BD73B50A460C462321054601F0E5
:103640006BFE684600F0A2FB6946002241F205537A
:1036500011F8010B03EB43130344B2FBF4F004FB3A
:10366000102001322E5C082A86EA03062E54EFD180
:10367000002341F205529C4201D102B070BDE95CC9
:1036800002EB42120A44B3FBF4F104FB11310133A3
:10369000685C50406854EEE7014B186801F092BD39
:1036A0004C0200207047000030B50346EFF3108451
:1036B00072B6094A094D10680144A94205D8084D5F
:1036C000A94202D31160421C03D10C221A604FF0B0
:1036D000FF3084F3108830BD340200200000042045
:1036E0001C2A00201946104600F070BB19461046EF
:1036F00000F0F0BD132303604FF0FF307047132339
:1037000003604FF0FF307047132303604FF0FF302A
:10371000704702294FF0000303608CBF0020012096
:103720007047FFF757BE00000C2907D841F2190374
:10373000CB40DB0706D44FF0FF30704740F20C63FC
:103740009942F8D110F0200F00F01F00044B00F553
:10375000E07008BF4FF0A04343F8201000207047EE
:1037600000030050837A027A003918BF012103F068
:10377000070343EA0123511E4A424A4143EAC21366
:103780000268D2F8D020C2F818357047FFF7EABFB8
:103790000A4A03688221C2F81C1C817AD3F8D0300F
:1037A00003EB810301219962D3F830110029FBD08A
:1037B0000021C3F83011C2F81C1C70470070024091
:1037C000032904D0042902D06FF08500704701233B
:1037D00013700120704701290AD11278D0F8D03037
:1037E0001AB1C3F8041501207047C3F80425FAE79D
:1037F0006FF0850070470129F0B504460ED1012A0B
:103800004FF0000507BF1030A57604F1700084F872
:103810007A50046002724172436003E0881E0128FE
:1038200001D90020F0BD04F11C050126012A0CBFBE
:10383000284605F16000477A3FB986720136082EA6
:1038400005D00C350028F1D0E3E70020F6E700288A
:10385000DFD1E6E7017A0368827A012907D12AB924
:10386000D3F8D0304FF48062C3F804237047002AA5
:10387000FCD1D3F8D0304FF40002F5E7017A0368A9
:10388000827A012907D12AB9D3F8D0304FF4806267
:10389000C3F808237047002AFCD1D3F8D0304FF486
:1038A0000002F5E7D0F8D03001225A65704702686F
:1038B000837AD2F8D02010B40BB9C2F85C31047A04
:1038C0000121994014B94C3342F823405DF8044B70
:1038D000C2F86C14FFF7BEBF012904D0022918D02A
:1038E0006FF0850070470368D3F8D010837A007AB0
:1038F00050B903F5887301EB83014B68003B18BF97
:10390000012313700120704703F5847351F82330AD
:10391000F4E70368817A007AD3F8D03030B901F542
:10392000947153F82130136004207047142000FB79
:103930000133D3F80836F6E738B5044621B101293A
:103940002AD06FF0850038BD2368A57A1278D3F8A5
:10395000D010007A0123AB4082B148B9D1F81425C8
:103960001343C1F814352046FFF7A1FF0120EAE711
:10397000D1F810251343C1F81035F4E7DB4328B91B
:10398000D1F814251340C1F81435EFE7D1F810250C
:103990001340C1F81035E9E71178FFF7E3FEE5E7DA
:1039A000F8B50568847AD5F8D0300F461646017A06
:1039B0006CBB012915D16AB995F8D420022A09D126
:1039C000196505F11000AB689847042385F8D430D9
:1039D0003046F8BD0122C3F80076C3F804665A6089
:1039E000F6E7C3F80077C3F8042795F8D410012947
:1039F00008D11965032385F8D43005F17000AB6850
:103A00009847E5E70229E3D10122DA64E0E71422CE
:103A1000012902FB043214D1C2F8007603EB8404BE
:103A2000C2F804660C4A8220C2F81C0C6160D4F80B
:103A30000831002BFBD00023C4F80831C2F81C3C2D
:103A4000C6E704F59474C2F80077C2F8046701224F
:103A500043F82420BCE700BF0070024038B5D0F81E
:103A6000D030D3F8002104466AB10022C3F8002107
:103A70000421436880F8D4209847D4F8D03001223C
:103A8000C3F8042338BDD3F85821002AFAD0D3F85C
:103A90000054EA0502D5436806219847AB0503D5D3
:103AA0006368072120469847D4F8D0300022C3F835
:103AB000582140F60172C3F800244FF48002DFE77A
:103AC000F8B5837A0468027A0546002B5BD194F836
:103AD000D410002A4AD1032907D184F8D420082120
:103AE000A368C9B22846984733E0D4F8D030D3F859
:103AF0005C1199B3C3F85C21D3F80027D3F8806434
:103B00001670D3F88414C9B25170D3F88804D3F86E
:103B10008C7440EA07205080D3F89004D3F8947452
:103B200040EA07209080D3F89804D3F89C7416F0EC
:103B3000800F40EA0720D0800CBF02220122052915
:103B400008BF002284F8D420D3F88434DBB2052BDC
:103B5000C5D12846BDE8F840FFF77CBED3F8282140
:103B600082B3C3F82811FFF713FEB8E7042902D186
:103B700084F8D430B3E7D4F8D020D2F8281109B3B0
:103B8000C2F82831ABE7012AD4F8D0600ED1D6F8BC
:103B90006C149A40114215D00023C6F86C24C6F864
:103BA00060314FF08073C6F8043398E7D6F86C2480
:103BB000103301279F403A4204D0FFF7E9FDC6F8D1
:103BC0006C748CE74FF0FF318AE70000174AD0F899
:103BD000D03010B549F275310324C2F8001CC2F888
:103BE000144DC2F8001C0121C3F80015D3F80014CD
:103BF0000905FBD5D3F8001421F40061C3F80014C3
:103C000049F275340021C2F8004CC2F8141DC2F804
:103C1000004C0122C3F8002502F1A07280F8D410F4
:103C2000C3F80023024B80225A6010BD00E006401A
:103C300000E100E0024BD82202FB0030704700BFD9
:103C4000F0250020034B044A1A60044AC3F8D02030
:103C5000704700BFF02500202C6F0000007002406C
:103C60002DE9F041444CD4F8D030D3F80021A2B172
:103C7000D3F80023D00710D50121C3F808136368D7
:103C8000204698473D4B1B682BB13D4B4FF080526F
:103C90005A60BFF36F8FBDE8F081D3F858215AB155
:103CA000D3F80023510207D54FF48002C3F808234C
:103CB000314863680121E4E7D3F85C2152B1D3F8BD
:103CC00000331A0206D52F48A368012198472D48D2
:103CD000FFF7D4FDD4F8D030D3F82821C2B1D3F8FF
:103CE00000335B0514D594F8D410012905D126487A
:103CF000A36898472448FFF7C1FD94F8D430022BFD
:103D000006D12048A368012198471F48FFF7B6FD58
:103D1000D4F8D030D3F86021002AB3D0D3F86C2483
:103D2000002AAFD00022C3F86021D3F86C840C269F
:103D30000127B8F1000FA5D098FAA8F5B5FA85F5D6
:103D4000102D10DDA5F110007043231893F8793081
:103D500023B17030A36801212044984707FA05F584
:103D600028EA0508E5E706FB05F023185B7E002B33
:103D7000F4D01030EEE700BFF02500203C250020F5
:103D800000ED00E06026002000260020024A0346E5
:103D900003CA1860596070476000001010B5032115
:103DA000084C2920FFF7C0FC4FF40073C4F80C3511
:103DB00003212A20FFF7B8FC4FF48063C4F80C35C8
:103DC00010BD00BF00030050FFF73CBF6FF085003F
:103DD000704782680168531C83604368013B13404D
:103DE000C85C704710B5EFF3108472B6EFF3108122
:103DF00072B6D0E9022381F310889A4204D0FFF70B
:103E0000E8FF84F3108810BD4FF0FF30F9E7F8B5F4
:103E100005460C46EFF3108772B60E4646B1EFF337
:103E2000108172B6D5E9022381F310889A4203D13A
:103E300087F31088A01BF8BD2846FFF7CAFF013E94
:103E4000ECE730B5EFF3108472B6EFF3108572B67D
:103E5000D0E902239B1A426885F3108893420BD065
:103E6000C2680568531CC3604368013B13400020CF
:103E7000E95484F3108830BD4FF0FF30F9E7F0B516
:103E8000EFF3108772B6144654B1EFF3108672B692
:103E9000D0E902535B1B456886F31088AB4203D11F
:103EA00087F31088101BF0BDC66811F801CB0568B8
:103EB000731CC3604368013B3340013C05F803C0F9
:103EC000E2E7B1F5167F08B506D0B1F5966F01D1DE
:103ED000FEF782FF002008BDFFF7BCF9FEE70AB934
:103EE00081F87C20704707B540F60833ADF8003004
:103EF0000B8D8DF8023002238DF80330082240F23A
:103F000002236946019300F025FC082003B05DF808
:103F100004FB0000284B2DE9F347C1F88430274B00
:103F20000962C1E9153140F202234B8501F15003CA
:103F30004B610A230026A1F84A3001F1100808233A
:103F40000C460E6581F82C6081F84C604E63096464
:103F50000222009341460123054600F0A4FF04F12C
:103F600030074FF0400A40F2FF13C3813946CDF8C5
:103F700000A001230322284600F095FF4FF480792A
:103F80003346A0F80E9003223946CDF800A028460B
:103F900000F089FF4146A0F80E90284600F05CFF33
:103FA0003946284600F058FFE36843F00103E36018
:103FB00002B0BDE8F08700BF094100005C6F00005F
:103FC00037B5194B009304460D4601236946052277
:103FD0008DF8043000F0BEFB144B009369460422B8
:103FE000204600F0B7FB42F205412A8DADF80010E3
:103FF0000621B5F848308DF802108DF80320694687
:10400000052220468DF8043000F0A4FB084AB5F8DC
:10401000483000926946052220468DF8043000F0B1
:1040200099FB132003B030BD0524002004240202B4
:104030000524010003681B68DB6A1847F8B5436F65
:1040400093F89831032B04460D4626D190F87C3026
:10405000012B22D1EFF3108672B600F16407EFF363
:10406000108172B6D4E91B2381F310889A420AD0DA
:104070003846FFF7B7FEA36F5A1C23443F2AA267B6
:1040800083F8D000EBD986F31088A26F04F1D00139
:104090002846BDE8F840FFF7CDBFF8BD73B51389DA
:1040A000B3F5407F0C46154615D113681B681E6A90
:1040B00004230DEB030202212846B047019A04F1C4
:1040C00090061AB1E36D31462046984740223146AA
:1040D0002846FFF7AFFF2A8940F201339A4211D1F7
:1040E0000023A367EFF3108172B6D4E91B2381F399
:1040F00010889A4206D02946204602B0BDE870409A
:10410000FFF79CBF02B070BD50F8083C803823B95F
:10411000836B1B689968FFF791BF70472DE9F041E9
:1041200090F87C300D46144600F164074BB1EFF374
:10413000108472B63846FFF7A2FE84F31088BDE8FB
:10414000F081EFF3108672B6EFF3108272B6016F52
:10415000D0E91A300344A3EB010882F310884445E8
:1041600010D92144C91A3846FFF751FE00EB080266
:10417000A31A1D4429463846FFF781FE86F31088AE
:104180002046DCE72246F5E7436F2BB100F18001C2
:1041900003F5B870FFF702BA70477FB50C4659783F
:1041A000212933D0222937D020292CD1DB88072B95
:1041B00029D1032A1BD1002303A9039300F0A4FAF9
:1041C000039B072B05461ED143798279016800794C
:1041D00000902046FFF775FE266E5EB92B68C4F886
:1041E0008830AB88A4F88C30AB7984F88E3001200D
:1041F00004B070BD28796B79AA79296800902046AF
:10420000B0470028EADA4FF0FF30F1E7072204F167
:10421000880100F09FFAEAE75B8813F0010312D0EF
:10422000012384F87C300022032104F1300000F0E7
:104230002DFE4022806804F19001FFF7FBFE20462E
:10424000FFF7A2FFD3E784F87C30D0E72DE9F843ED
:104250000C46DDE9089805461746002120464FF434
:10426000A8721E4601F058F8064B6567C4E9199814
:10427000C4E91776636021462846BDE8F84300F09C
:10428000FBBD00BF6C6F000070B5064E0C468D186C
:10429000AC4200D170BD14F8011B3046FFF7BFF9E6
:1042A000F6E700BF3802002007B580230193054BD5
:1042B0000093054A05490023FFF7C8FF03B05DF8E6
:1042C00004FB00BF08270020894200008827002047
:1042D000704700002DE9F041DFF8288005460C46C4
:1042E000064614B9701BBDE8F081224631464046AF
:1042F000FFF714FF07464046FFF746FF3E44E41B26
:10430000EFE700BF88270020F7B5CB6843F0010333
:104310000026CB60402701230C460E761A46314614
:104320000097054600F0BFFD8368A3630122334672
:1043300000973146284600F0B6FD8368636303B0FA
:10434000F0BD03681B6810B45C6A0A46A4460123EA
:104350005DF8044B0021604703681B68DB6A18475F
:104360002DE9F3470C460B7C91F910100029054606
:1043700003DBE28A206B90420ED803F01F02012A71
:1043800000F0C080022A00F0DC8062B90029637C62
:1043900078DA5BB1062B14D0D5F8780103685B6935
:1043A00098470023237602B0BDE8F08795F89B314B
:1043B0005B00022201A92846ADF8043000F0CAF9DA
:1043C00048E0638A1A0A013A052AE5D801A151F8A2
:1043D00022F000BFED430000FB4300000344000057
:1043E00099430000994300006D440000284600F006
:1043F00073FB0028D0DBD6D02CE0284600F070FA02
:10440000F7E7D5F88461002EC6D013F0FF030BD177
:104410004FF44173022269462846ADF8003000F09F
:1044200099F940F20943C4E703228DF80520328947
:104430009A4200F0B1803668002EF8D1ACE72846E9
:1044400000F0B3F90021284600F0AFF916F8011F7B
:104450000029F4D194F91030002B2EDA01232846DC
:10446000237602B0BDE8F04700F0BBB9D5F878017B
:1044700000238DF80430036801AA9E6804210123FB
:10448000B04789E7052B15D0092B85D10323D5F833
:104490008861DFF82891DFF828A185F89831002E8F
:1044A000D8D0B768C7B9D6F80C80B8F1000F1BD1C7
:1044B0003668F4E7638A85F89A31E38A226B9A4278
:1044C00063D20323606B2376402204F13C0102B0E7
:1044D000BDE8F047FFF740BFFB7B1BB1B86849461A
:1044E000FFF72FFF3F68DDE7D8F8087017B9D8F855
:1044F0000080DAE7FB7B1BB1B8685146FFF721FF6C
:104500003F68F3E7617CA28AD5F87C0103F0600381
:104510000B4302F00F023FF44CAFD5F88831002B6B
:104520003FF43AAF198B914209D119694E68F66888
:104530002EB1027E04F110032846B04759E71B68EC
:10454000EDE7A38A03F00F0000EB80001B06637CFD
:104550004FEA80004CBFD0303030012B28440DD0C2
:10456000032B04D0002B7FF417AF037C21E7638A71
:10457000002B7FF411AF00F0B5FC6BE7638A002BD2
:104580007FF40AAF00F0B5FC64E70423A06B237648
:10459000002204F17C019AE702278DF8047070680C
:1045A00000F04EFE013040008DF804003A4601A9AB
:1045B000284600F0CFF87668013E47E77E6F00009E
:1045C0007D6F000073B505460C4653BB0B7E042B74
:1045D00027D8DFE803F05328233D0300137A012B8B
:1045E0001FD190F89A3173B190F89831012B0AD10C
:1045F000D0F8780102680021D66805F5CD72B04781
:10460000022385F898310023606B2376402204F161
:104610003C0102B0BDE87040FFF79EBE137A002B4C
:10462000F2D002B070BD167A012EFAD100F07AF8FD
:1046300028B121462846FFF793FE2676F1E7606B06
:10464000402204F13C01FFF787FE02232376E8E7CE
:10465000137A002BE5D1606B019303681B681E6A17
:1046600004230DEB03020221B047236B019A13448C
:10467000236321462846FFF773FED2E7167A002E01
:10468000CFD13146102204F11C0000F045FEE36B4F
:104690002361236C6361E38A266321462846E36233
:1046A00002B0BDE87040FFF75BBE000010B50C46DD
:1046B000E2B980F89B21886B0A7603681B689B69C6
:1046C0009847606B03681B689B699847A06B084913
:1046D000FFF737FE606B0649FFF733FE606B04F1AE
:1046E0003C014022BDE81040FFF736BE10BD00BFC0
:1046F0007C6F0000034B4B60D0F88C310B60C0F82E
:104700008C117047806F000038B5D0F87C41606B29
:1047100003681B680A461D6A02210423A84704F1A6
:104720003C0038BDD0F87C319A6BD8695268196A60
:10473000024491420CD9D96A884209D2986A8142CE
:104740004FF0000005D9C3E90720586201207047E7
:1047500000207047D0F87C01F8B5836BC7695D68AD
:10476000036A9F423D4403EB020408D9AB4202D2E4
:10477000FE1A964206D9046200252846F8BDAB42CF
:10478000F9D20026AC422CBFED1A951B426A046296
:1047900028BFAD1B2A44DB1B426233447C302A46CF
:1047A0003144184401F0E4F8E7E7D0F87C21936B3A
:1047B000D06910B55C68136A98420ED80444A342CD
:1047C0000BD21B1A1344012083F87C10136A0133A7
:1047D0001362536A0133536210BD01331362002028
:1047E000FAE7D0F87C11C869CA6A4B6A121A9A4271
:1047F00028BF1A468B6A886B13448B6203681B6858
:104800007C31DB6A184770B506460C4600250CB9AA
:10481000284670BD62689368127B1AB1A168304661
:104820009847034624681D44F1E770B506460C46D8
:1048300000250CB9284670BD63681B681BB1A168D0
:1048400030469847034624681D44F2E770B5064693
:104850000C4600250CB9284670BD63685B681BB127
:10486000A16830469847034624681D44F2E7F7B52F
:1048700005460C46002640F2075714B9304603B0EF
:10488000F0BD61682846FFF7D0FFA268ADF8007060
:10489000117A937A8DF80230012904BF63F07F0307
:1048A0008DF80230537A9A1E022A9ABFC3F105038B
:1048B000DBB200238DF80330A389ADF80430072262
:1048C000A37B8DF8063069462846FFF743FF6168F1
:1048D0002846FFF7BBFF9DF8003024681E44CCE754
:1048E0002DE9F04F8DB07B4A039200230122ADF8F1
:1048F00010308DF8112080228DF8132032228DF88F
:104900001420D0F888218DF8123004463ABBD4F830
:1049100080118DF810302046FFF775FFD4F88851CC
:104920000930FDB9238CADF80E00092203A92046F9
:104930008DF81230FFF70EFFD4F880112046FFF7F4
:1049400085FFD4F8886100F109082F4640F2094933
:10495000002E3FD108EB05000DB0BDE8F08F1268C6
:104960000133D3E700F1090769682046FFF74BFFE1
:10497000AE680744002046B9D5F80C800744B8F16A
:10498000000F0BD12D68B819CBE7716800F107084B
:104990002046FFF738FF36684044ECE7D8F80410AB
:1049A0002046FFF730FF0936D8F808A0064400205B
:1049B000BAF1000F03D1D8F800800644DFE7DAF837
:1049C000041000F107092046FFF71DFFDAF800A0E8
:1049D0004844EDE771682046FFF727FF338BCDF899
:1049E0001A708DF81A30B37ECDF81D708DF81D3019
:1049F000F37E8DF81E30B268337F8DF81F3082460B
:104A00000935ADF81890002302BB8DF81C3073698E
:104A100013B11B898DF82030092206A92046FFF723
:104A200099FE71682046FFF711FF55440544B168AF
:104A30002046FFF71CFFD6F80CA0054401220020F9
:104A4000BAF1000F05D13668054481E712680133D9
:104A5000DAE7338B8DF82630B37E0A978DF82C7009
:104A60008DF82930F37E8DF82A3002F1010B337F67
:104A7000DAF808108DF82B308DF82720ADF8249047
:104A800000F109035FFA8BFB002201BB8DF828209F
:104A9000DAF80C2012B112898DF82C20092209A90C
:104AA00020460193FFF756FEDAF804102046FFF780
:104AB000CDFE019BDAF80810034420460193FFF76E
:104AC000D6FE019BDAF800A018445A46B8E70968F8
:104AD0000132DAE7090209007FB50022ADF80820AB
:104AE0008DF80A200F4A019240228DF80B200E4AC1
:104AF00003924FF48072ADF810200289838D8DF8F7
:104B00001220828A8DF813208DF81430122201238E
:104B100001A98DF81530FFF71DFE122007B05DF8D2
:104B200004FB00BF120100020912007D0129F8B543
:104B3000C4680ED1B4F99421531E9BB21F2B96BFAB
:104B4000234B002053F822000221BDE8F840FEF775
:104B5000D7BA062921D0072928D004291CD101233E
:104B6000D4F8780184F89831002584F89A510268C5
:104B70002946D66804F5CD72B047234604F1A00259
:104B800083F8405083F8E05014339342F8D1012663
:104B90000027D4F88C5185B9F8BD94F8983184F881
:104BA0009931042684F898610227F2E794F8993144
:104BB00084F8983108260327EBE7EB681E4205D0FE
:104BC0006B683A465B682946204698472D68E2E7BD
:104BD0004825002070B5036804460129D868A37AE7
:104BE0000A4622D1217A4C1E6142614103EBC10386
:104BF000DBB202FA03F3EFF3108272B6D0F8901131
:104C00000B43C0F8903182F31088B0F99421531E01
:104C10009BB21F2B98BF234BBDE8704094BF53F845
:104C2000220000200421FEF76BBACBB9D0F88C111A
:104C3000C9B1082A2ED0092A15D1CB689B0612D5F6
:104C40004B6822469D680223A8472368164A1B68C2
:104C50005D6A01232046AC461946BDE870406047B6
:104C6000D0F8883103B970BD996819B9D96841B9CC
:104C70001B68F7E78D68AC4201D11969D8E709686C
:104C8000F3E78D680DB90968F1E7AE68B442F4D076
:104C90002D68F7E74B689D682246AC460023BDE8C7
:104CA0007040604748250020906F000038B50446EA
:104CB0000D464FF4D872002100F02EFBC4F8785155
:104CC00038BD00001FB50293069B0193034B009370
:104CD0000023FEF73DFA05B05DF804FB014D00002E
:104CE000034610B5D0F884010860B3F89601C3F804
:104CF0008411441CA3F8964108814A6010BD00004D
:104D00002DE9F0474C4BB2B000261B68C0F8743157
:104D100003A9C0F87C11C0F87061044600F5B878AA
:104D2000FFF7E8FC454BD4F878511B88A4F8943180
:104D30000123A4F89631424B84F89A61C4F8886143
:104D40006B60404BC5E902342B6828461B689847C6
:104D50003D4A04F118012046FFF7C2FF3B4A04F127
:104D60000C012046FFF7BCFF394A21462046FFF7D9
:104D7000B7FF04F5CE77082101A8FEF75BFC0822F7
:104D800001A93846FEF73AFC3A4604F124012046D0
:104D9000FFF7A6FF84F89861D4F88C61F6B92B6808
:104DA0002C4ADE68012319462846B0474FF0010916
:104DB0000720FEF797F98107064603D52B6828469A
:104DC0001B699847720710D4F307F1D54046FEF7E8
:104DD000FBFB0028ECD043689847E9E7736831464D
:104DE0001B68204698473668D8E7EFF3108372B601
:104DF0000022D4F890A1C4F8902183F310881427DE
:104E0000BAF1000FE0D09AFAAAF3B3FA83F3072BB2
:104E100009FA03F2CBBF083B07FB034307FB03433D
:104E2000986BC8BFD3F8D80003681B689B6A2AEA4E
:104E3000020A9847E4E700BF40250020CC25002067
:104E40002D4B0000D54B0000EC6E0000F76E00000B
:104E50000E6F0000916F000010B5D0F8883100F59A
:104E6000C4720020441C1BB980B20883116010BDBD
:104E70001A4620461B68F5E7D0F88C3100F5C6725B
:104E80000BB9116070471A461B68F9E710B58068C6
:104E900000B910BD83685C7A8C4202D11B7A9342C0
:104EA000F7D00068F4E7F8B50646D0F87801069D1B
:104EB0000C4611461A4603685F682B46B84780B116
:104EC000837A027A03EB83039B00012A0CBFD03361
:104ED000303333449D81986014B1A2681A60A36096
:104EE0001846F8BD01210174806803681B68DB69FE
:104EF000184700210174806803681B68DB69184744
:104F000070B50F4B0F4DAB42A3EB050607D0B610A3
:104F1000002455F8043B01349847A642F9D8FEF71F
:104F2000BBFB094D094B5E1BAB424FEAA60606D000
:104F3000002455F8043B01349847A642F9D870BDC7
:104F4000D46F0000D46F0000D46F0000D46F000055
:104F5000036A2DE9F041846880460E46002B3BD061
:104F6000A3891B0717D52369ABB1013EA36816F8C7
:104F7000015F013BA360EDB1002B07DAA7699F42F7
:104F800022462946404610DC0A2D0ED023685A1CC2
:104F900022601D70EAE72146404600F087FC0028A9
:104FA000E3D04FF0FF30BDE8F08100F0E9FF0130C1
:104FB000DCD1F6E7002B09DA22460A21404600F050
:104FC000DFFF0130EDD00A20BDE8F08123680A221E
:104FD000591C21601A70F6E700F0F4F8C0E700BF32
:104FE000024B01461868FFF7B3BF00BF4C02002018
:104FF00000207047024A0349034800F035BC00BF57
:105000009C020020E1540000500200200C4B41683B
:10501000994210B5044601D000F062FAA168094B2C
:10502000994202D0204600F05BFAE168064B9942B3
:1050300004D02046BDE8104000F052BA10BD00BFB9
:10504000D828002040290020A829002000207047EF
:105050002DE9F8432A4C2B49DFF8BC90DFF8BC80DF
:10506000294FC4F83811002504230822294604F1E9
:105070005C00264EE360C4E90055C4E90455A56010
:105080006566A56100F048F9214B6367082229464F
:1050900004F1C400C4E90849C4E90A87C4E91A55FF
:1050A000C4E91E552567C4F8CC50C4F88050266367
:1050B00000F032F9174BC4F8DC30294604F16803DC
:1050C000082204F59670C4F88830C4E92398C4E92E
:1050D0002576C4E93455C4E93855C4F8D850C4F825
:1050E0003451C4F8E85000F017F904F1D003C4E9D2
:1050F0003D98C4E93F76C4F8F030BDE8F88300BFBE
:10510000D8280020F54F000089600000AD60000045
:105110000900010012000200216000004960000047
:10512000F8B5254BD3F838310646002B3CD0234F39
:10513000D7E90134013B04D51DE05A1C04F1680491
:1051400019D0B4F90C50013B002DF6D11C4BE36093
:10515000C4E90155C4E9045565662560A5610822C6
:10516000294604F15C0000F0D7F8C4E90D55C4E904
:1051700012552046F8BD3D680DB12F46D8E74FF4D3
:10518000D671304600F012FA044680B10423C0E91B
:1051900000530C302946A0604FF4D072254600F031
:1051A000BBF83C602F46C3E7FFF752FFBFE70C2375
:1051B00038603360DDE700BFD82800209C02002063
:1051C0000100FFFF036A03B17047044B044AD3F8A0
:1051D00038310262002BF7D13AE700BFD82800200F
:1051E0000D500000704700BF704700BF024A0349DE
:1051F000002000F039BB00BF9C020020F14F0000EE
:10520000024A0349002000F02FBB00BF9C0200208F
:105210004D500000000000000000000000000000F1
:10522000000000000000000000000000000000007E
:10523000000000000000000000000000000000006E
:1052400030B490F800F020F007016FF0000C10F07F
:10525000070491F820F040F048804FF000046FF010
:105260000700D1E9002391F840F000F1080082FA2C
:105270004CF2A4FA8CF283FA4CF3A2FA8CF34BBBF7
:10528000D1E9022382FA4CF200F10800A4FA8CF270
:1052900083FA4CF3A2FA8CF3E3B9D1E9042382FA3E
:1052A0004CF200F10800A4FA8CF283FA4CF3A2FA53
:1052B0008CF37BB9D1E9062301F1200182FA4CF28B
:1052C00000F10800A4FA8CF283FA4CF3A2FA8CF3F2
:1052D000002BC6D0002A04BF04301A4612BAB2FA14
:1052E00082F200EBD20030BC7047D1E9002304F019
:1052F0000305C4F100004FEAC50514F0040F91F84E
:1053000040F00CFA05F562EA05021CBF63EA0503EA
:1053100062464FF00004AAE7830730B547D0541E19
:10532000002A3ED0CAB2034601E0013C39D303F85B
:10533000012B9D07F9D1032C2CD9CDB205EB052506
:105340000F2C05EB054535D9A4F1100222F00F0C06
:1053500003F1100EE6444FEA121C1A46C2E900554A
:10536000C2E9025510327245F8D10CF1010214F075
:105370000C0F03EB021204F00F0C13D0ACF104037A
:1053800023F003030433134442F8045B9342FBD13C
:105390000CF003042CB1C9B21C4403F8011BA34256
:1053A000FBD130BD64461346002CF4D1F9E7034627
:1053B0001446C0E71A46A446E0E700BFB1F90C3036
:1053C0002DE9F0411E070C4680463DD44A68002A6C
:1053D00056DDE56A002D34D00022D8F80060C8F808
:1053E000002013F48052216A57D101234046A84778
:1053F000451C024666D0B4F90C30E56A216A5807AC
:1054000005D56368D21A636B0BB1236CD21A0023E3
:105410004046A847431C42D00023636023692360B1
:10542000A389DF0400D56065616BC8F8006041B1F5
:1054300004F14403994202D0404600F037F90023BA
:1054400063630020BDE8F0810E69002EF9D09B0750
:105450000D6808BF4B690E6018BF0023AD1B8B6041
:105460000BE02B463246216AA76A4046B847B0F1A6
:10547000000CA5EB0C05664406DD002DF1DCE0E731
:105480000A6C002AA5DCDCE7B4F90C3043F04003D9
:10549000A3814FF0FF30BDE8F081626DAFE7D8F82F
:1054A0000010B4F90C301D29F0D80C4ACA40D507B9
:1054B000ECD52269226000226260DA04B4D50029AA
:1054C000B1D0B1E7D8F80030002B94D01D2B01D01B
:1054D000162BD9D1C8F80060B3E700BF0100402007
:1054E0000B69B3B110B5044682B008B1036A5BB171
:1054F000B1F90C3013B9002002B010BD204602B043
:10550000BDE81040FFF75ABF0191FFF75BFE01991C
:10551000EEE70020704700BFB8B138B50D4A036907
:10552000156804462BB10DB12B6A53B1B4F90C3098
:105530000BB9002038BD21462846BDE83840FFF7AA
:105540003DBF2846FFF73EFEF0E7034A0349044803
:1055500000F08AB94C0200209C020020E1540000B7
:105560005002002070B5104E336805460C46B3B1AA
:1055700021462846FEF798F8431C0CD0C41C24F0A2
:105580000304A04205D0211A2846FEF78DF8013009
:1055900001D0204670BD4FF0FF34204670BD194643
:1055A000FEF782F83060E3E7142A00202DE9F84383
:1055B000CD1C25F0030508350C2D38BF0C25002D1A
:1055C000064618DBA94216D8DFF8DC8000F09CFA0A
:1055D000D8F80420A2B1144603E0636822467BB1E8
:1055E0001C4623685B1BF8D40B2B1FD894426368BE
:1055F00054D053600CE00C2333600020BDE8F883E6
:1056000029463046FFF7AEFF431C044619D005601B
:10561000304600F07BFA04F10B00231D20F0070058
:10562000C21A1CBF1B1AA350BDE8F883611994422B
:10563000256014BF5160C8F80410635163684B6063
:10564000E6E7D8F804701FB33C467F68002FFBD113
:1056500023683946304604EB0309FEF725F88145F7
:1056600016D12368ED1A29463046FFF77BFF01303B
:105670000ED02368D8F804202B442360536883B1EC
:10568000A34203D01A465B689C42FBD10023B0E7DB
:105690000C233360304600F039FAAEE7C8F8043026
:1056A000B6E7C8F80470B3E7142A0020002950D0E8
:1056B00038B551F8043C0C1F002BB8BFE418054660
:1056C00000F022FA274A13682BB1A3420CD92168B3
:1056D000601883422CD0636028461460BDE83840CF
:1056E00000F014BAA3420FD81A465B68002BF9D118
:1056F00011685018844217D02CD363605460284638
:10570000BDE8384000F002BA11685018A04214D029
:1057100020D8216860188342EFD118685B6808447C
:10572000C4E900035460EAE723680B441360E6E72A
:1057300018685B6808442060CDE720680144501871
:1057400083421160DBD1D3E900040144C2E90014B3
:10575000D5E770470C232B602846BDE8384000F0A1
:10576000D5B900BF182A002088420ED98B18834271
:105770000BD900EB020C002A6ED0624613F801CD63
:1057800002F801CD9942F9D170470F2A0FD803468C
:1057900002F1FF3C002A5FD00CF1010C013B8C446C
:1057A00011F8012B03F8012F6145F9D1704740EA48
:1057B00001039B0751D1A2F1100370B501F1200C38
:1057C00023F00F0501F1100E00F11004AC441B0989
:1057D0005EF8105C44F8105C5EF80C5C44F80C5CFD
:1057E0005EF8085C44F8085C5EF8045C44F8045C0D
:1057F0000EF1100EE64504F11004E9D1013312F068
:105800000C0F01EB031102F00F0400EB031328D07F
:10581000043C24F003064FEA940C1E441C1F8E46E1
:105820005EF8045B44F8045FB442F9D10CF1010462
:1058300002F0030203EB840301EB840102F1FF3C5D
:105840004AB10CF1010C013B8C4411F8012B03F817
:10585000012F6145F9D170BD704702F1FF3C03464D
:105860009AE72246EAE700BF2DE9F8430746884653
:1058700016464FF00009D6E90154013D10D4A38922
:10588000012B08D9B4F90E3001332146384602D035
:10589000C04749EA0009013D6B1C04F16804EED1E0
:1058A0003668002EE7D14846BDE8F88338B52F4B5F
:1058B0001B6805460C4613B11A6A002A4BD0B4F98E
:1058C0000C3018071CD5226922B313F0010107D050
:1058D000616900204942A060A1613AB1002038BD51
:1058E000980758BF6169A160002AF7D1190658BF0F
:1058F0001046F4D543F04003A3814FF0FF3038BD8C
:10590000D9062CD55A0712D4226943F00803A38183
:10591000002ADAD103F42071B1F5007FD5D02146F9
:10592000284600F0F5F8B4F90C302269CDE7616B38
:1059300051B104F14402914204D02846FFF7B6FE6B
:10594000B4F90C300022626322690021C4E900210D
:1059500023F02403D9E71846FFF734FCAFE7092208
:1059600043F040032A60A381C7E700BF4C02002038
:10597000844641EA000313F003036DD1403A41D35A
:1059800051F8043B40F8043B51F8043B40F8043B19
:1059900051F8043B40F8043B51F8043B40F8043B09
:1059A00051F8043B40F8043B51F8043B40F8043BF9
:1059B00051F8043B40F8043B51F8043B40F8043BE9
:1059C00051F8043B40F8043B51F8043B40F8043BD9
:1059D00051F8043B40F8043B51F8043B40F8043BC9
:1059E00051F8043B40F8043B51F8043B40F8043BB9
:1059F00051F8043B40F8043B51F8043B40F8043BA9
:105A0000403ABDD2303211D351F8043B40F8043B48
:105A100051F8043B40F8043B51F8043B40F8043B88
:105A200051F8043B40F8043B103AEDD20C3205D358
:105A300051F8043B40F8043B043AF9D2043208D050
:105A4000D2071CBF11F8013B00F8013B01D30B88C2
:105A500003806046704700BF082A13D38B078DD0A0
:105A600010F003038AD0C3F10403D21ADB071CBF72
:105A700011F8013B00F8013B80D331F8023B20F8DC
:105A8000023B7BE7043AD9D3013A11F8013B00F815
:105A9000013BF9D20B7803704B7843708B7883709D
:105AA000604670472DE9F041144641B30AB30646FB
:105AB0000D4600F0FFFA8442074602D8B4EB500FBF
:105AC00013D821463046FFF771FD804650B1BC42E5
:105AD0002246294628BF3A46FFF74AFF2946304664
:105AE000FFF7E4FD4046BDE8F081A8464046BDE82A
:105AF000F081A046FFF7DAFD4046BDE8F081BDE841
:105B0000F0411146FFF752BD704700BF704700BF1C
:105B100070B5B1F90C300C46990796B007D504F171
:105B200047030122C4E90432236016B070BDB4F902
:105B30000E100029054629DB6A46FDF7E5FD002821
:105B400022DB4FF480612846019EFFF72FFD88B3CA
:105B5000A389206043F0800306F47046A381B6F564
:105B6000005F4FF48063C4E90403DED1B4F90E1082
:105B70002846FDF7CEFD0028D7D0A38923F00303E4
:105B800043F00103A381D0E7B4F90C3013F0800F88
:105B900014BF40264FF4806631462846FFF706FDC5
:105BA00040B1A389206043F08003C4E90406A381C7
:105BB00016B070BDB4F90C309A05B6D423F00303C7
:105BC00004F1470243F002030121C4E90421A38147
:105BD0002260AAE770B50C46B1F90E10002996B004
:105BE00015461E460FDB6A46FDF78EFD00280ADBD0
:105BF000019B03F47043A3F50053B3FA83F34FF40E
:105C000080625B0908E0A28912F0800F4FF0000368
:105C100014BF40224FF48062002033602A6016B027
:105C200070BD00BF0EB400B582B003AB816853F8FD
:105C3000042B019300F060F802B05DF804EB03B0B0
:105C4000704700BF0FB400B5074983B004AB0868C4
:105C500053F8042B8168019300F04EF803B05DF80F
:105C600004EB04B0704700BF4C0200209368013B76
:105C7000002B936011DA10B49469A34209DB0A295E
:105C800007D01368581C1060197008465DF8044B63
:105C900070475DF8044B00F073B91368581C10602E
:105CA00019700846704700BF9BB1F8B5134406460B
:105CB0000F46541E5D1E01E0AC4208D014F8011FCF
:105CC0003A463046FFF7D2FF431CF5D1F8BD00201D
:105CD000F8BD0020704700BF936810B514461BB98B
:105CE00018460023636010BD00F0ECF90023A360A8
:105CF0000023636010BD00BF2DE9F04FA1B08B46BB
:105D000091461C46049018B1036A002B00F01C81D8
:105D1000BBF80C30180740F19580DBF81030002BF1
:105D200000F090800023CA460D9343F22003ADF8A3
:105D300039309AF80030864E07940127002B79D02D
:105D4000D14604E019F8013F002B00F08580252B97
:105D5000F8D1B9EB0A0840F0828099F80030002BA6
:105D600068D000234FF0FF32CDE9092309F1010982
:105D700008930B938DF863301E9305E0089A07FA99
:105D800003F31A430892A1464C46052214F8011B5E
:105D9000304600F01DFBA246831B0028EED1089B75
:105DA000D90644BF20228DF8632099F800101A0705
:105DB00044BF2B228DF863202A2966D1079A1168E7
:105DC000043200290792C0F29A800B9199F80110D1
:105DD0002E2970D05F4C0322204600F0F9FA38B12A
:105DE000089B001B4022824013430AF1010A0893DA
:105DF0001AF8011B58488DF83810062200F0E8FA0E
:105E0000002800F08280554B002B69D007AA009231
:105E1000534B04985A4608A9AFF300800390039BA4
:105E2000013307D00D9B039A13440D939AF8003069
:105E3000002B85D1BBF80C305B060AD40D9821B03D
:105E4000BDE8F08F04985946FFF730FD00283FF475
:105E500069AF4FF0FF30F2E7B9EB0A08EAD00AF178
:105E6000FF35CDF81490A946049D01E0A0453ED928
:105E70004C465A4619F8011F2846FFF7F7FE023430
:105E80000130A4EB0A04F1D1D4E7A1F13002092AD0
:105E900088BFCA469CD80B9B00E00134217803EBF5
:105EA000830302EB4303A1F13002092AF5D92E291D
:105EB0000B93A2468ED19AF801102A292FD1079B65
:105EC0009AF802101A6809920433002A0AF10200B3
:105ED0000793B8BF4FF0FF338246B8BF099379E705
:105EE000079B073323F00703083307939AE70D99BD
:105EF000DDF81490414499F800300D912FE74942A4
:105F000043F002030B91089360E707AA0092144B39
:105F100004985A4608A900F03DFB03907FE7A1F1E1
:105F200030020023092A09930AF1010A3FF652AF11
:105F30001AF8011F03EB830302EB4303A1F13002C4
:105F4000092AF5D9099345E7FFF73CF9E0E600BFD8
:105F5000946F00009C6F0000A06F00000000000024
:105F6000A95C000010B4054C8446134620685DF817
:105F7000044B0A466146FFF7BFBE00BF4C0200203B
:105F8000F8B50D461446064610B1036A002B37D00B
:105F9000A389A269A2601A0719D52369BBB1226837
:105FA0006169D31AEDB299422F4620DD0133A16811
:105FB0000139A160511C2160157062699A420DD0AF
:105FC000A389DB0701D50A2D08D03846F8BD214644
:105FD0003046FFF76BFC38B92369E0E721463046CD
:105FE000FFF77EFA0028F0D04FF0FF37EDE72146AB
:105FF0003046FFF775FA0028F6D122680123D6E76C
:10600000FFF7E0F8C4E700BF10B4044C03460A46AB
:1060100020685DF8044B1946FFF7B2BF4C02002020
:1060200010B50C46B1F90E10FDF75CFB002803DB40
:10603000636D0344636510BDA38923F48053A3817A
:1060400010BD00BF002070472DE9F0410C46B1F9AA
:106050000C101F46CB05054616460BD421F4805183
:10606000A1813B46B4F90E1032462846BDE8F04106
:10607000FDF73CBBB4F90E1002230022FDF73FFBF5
:10608000B4F90C10EAE700BF10B50C46B1F90E10D8
:10609000FDF735FBB4F90C30421C0EBF23F48053DE
:1060A00043F480536065A38110BD00BFB1F90E10A9
:1060B000FDF720BB51F8043C181F002BBCBF0B5848
:1060C000C01870479368002B00F0F8802DE9F04F5E
:1060D000B1F90CC01CF0080F83B0904681460C4605
:1060E00031D00B697BB31CF00207D8F8006038D0C0
:1060F0000027D4F828B0216ADFF8C4A23D465545F0
:106100002B463A4628BF53464846C5B1D8470028D3
:1061100040F3CA80D8F808301B1A07442D1AC8F873
:106120000830002B00F0B68055452B46D4F828B037
:10613000216A28BF53463A464846002DE6D1D6E9A3
:1061400000750836DBE721464846FFF7AFFB00281D
:1061500040F0AF80B4F90CC0D8F800601CF0020722
:10616000C6D11CF0010A63D12368A16857461846BE
:106170008B46002F58D01CF4007F00F0B580B94248
:106180000A4600F2E1801CF4906F2FD02169626909
:106190005D1A02EB420202EBD2726B1C52103B44BE
:1061A000934292BF93469B461A461CF4806F00F0C0
:1061B000EA8011464846FFF7F9F9002800F0F98017
:1061C0002A4621690090FFF7D3FBA289009B22F4A5
:1061D000906242F08002A2815819ABEB0505C4F829
:1061E00014B02361A5602060BB463A465146009238
:1061F000FFF7BAFAA1682368009AA1EB0B011A44D1
:106200003D46A16022600027D8F808305B1BAA44F5
:10621000C8F80830002B3DD02368A168B4F90CC041
:1062200018468B46002FA6D1D6E900A708369EE770
:106230003846BB463D460097002D41D0002846D049
:10624000009A2068A168D4E90473AA4228BF2A46AC
:10625000B84204D901EB030A524500F3858093420A
:1062600075DC216AA76A5A464846B847B0F1000A69
:106270001ADD009BB3EB0A0300930FD00120D8F87E
:106280000830A3EB0A03D344A5EB0A05C8F808308D
:10629000002BD1D1002003B0BDE8F08F2146484645
:1062A000FFF71EF90028EAD0B4F90C3043F04003A0
:1062B000A3814FF0FF3003B0BDE8F08F002070479E
:1062C000756833460836002DFAD0D3F800B02A4658
:1062D0000A21584600F07CF8002867D00130A0EB76
:1062E0000B0300931A46ACE722699A4214D3626901
:1062F000BA4211D86FF00043BB4228BF3B46A56AA3
:1063000093FBF2F3216A02FB03F348465246A84787
:10631000051EC9DD7F1B77E7B94228BF39460D4608
:1063200018460A465146FFF71FFAA1682368491B21
:106330002B44A16023600029ECD121464846FFF799
:10634000CFF80028E6D0AFE7BB463A464EE75946BD
:106350000192FFF709FA019AA3689B1AA3602368C8
:1063600013442360924684E759465246FFF7FCF9EE
:1063700023685344236021464846FFF7B1F80028BC
:106380003FF477AF90E74846FFF78CFB03460028C1
:106390007FF422AF21694846FFF788F9B4F90C3041
:1063A0000C22C9F8002023F080037FE76A1C0092CA
:1063B00047E70C22B4F90C30C9F8002076E700BF9B
:1063C00000FCFF7F00000000000000000000000053
:1063D00001F0FF01102A2BDB10F0070F08D010F896
:1063E000013B013A8B422DD010F0070F42B3F6D19A
:1063F000F0B441EA012141EA014122F007047FF0B3
:1064000000070023F0E80256083C85EA010586EA09
:10641000010685FA47F5A3FA87F586FA47F6A5FA45
:1064200087F68EB9EED1F0BC01F0FF0102F0070251
:1064300032B110F8013B013A83EA010313B1F8D1FC
:106440000020704701387047002D06BF35460338DD
:10645000073815F0010F07D1013015F4807F02BF16
:10646000013015F4C03F0130F0BC0138704700BF67
:106470002DE9F84F92461F460A698B68DDF828908F
:106480009A42B8BF1A46CAF8002091F843300C4629
:10649000064613B10132CAF80020226891065FD582
:1064A000DAF800300233CAF80030226812F0060F22
:1064B00011461DD1E1689942D8BF114618DD4FF051
:1064C000000804F1190B05E0E568DAF80030ED1A70
:1064D00045450CDD01235A4639463046C847013050
:1064E00008F10108F0D14FF0FF30BDE8F88F2168C6
:1064F00094F84330003B18BF01238A060AD5E118FF
:106500005A1C302081F84300224494F8451082F848
:106510004310023304F1430239463046C847013084
:10652000E1D02368DAF80050216903F00603042B58
:10653000D4E902201BD08A4220DD4FF00008521A15
:1065400090441A34002501E0454517DA012322461C
:1065500039463046C847013005F10105F4D1C2E79C
:1065600012F0060F0DD0003B18BF0123D2E7401BED
:106570008A4220EAE078E2DC0028E2DC0020BDE884
:10658000F88FE168DAF800309942D8BF114696DCFE
:10659000AEE700BF2DE9F047174684B00A7E0C9D98
:1065A0000C460646984601F1430C002A35D0A2F16C
:1065B0005803D9B2202969D8202B67D8DFE813F017
:1065C000E60066006600660066006600660066001B
:1065D000660066006600AC0070006600660066003B
:1065E0006600700066006600660066002100830099
:1065F000C60066006600B60066008300660066009E
:10660000EC002B6822686169181D286010061B6861
:1066100002D4520600F1E08019600023E1462361B4
:10662000CDF800803B4603AA21463046FFF720FF05
:10663000013020D023694A4639463046C0470130F0
:1066400019D02368E068DDF80C909B0718D5484501
:1066500016DD002504F1190A04E0E068A0EB090347
:10666000AB420DDD0123524639463046C04701306A
:1066700005F10105F1D14FF0FF3004B0BDE8F0871E
:106680004845B8BF484604B0BDE8F08784F84220CA
:10669000012004F142090023206184F84330BFE760
:1066A0002A682368111D1806296002D4590600F1D2
:1066B00095801068014600286268C0F293805448B3
:1066C0004FF00A0E15E020682B6810F0800F53F889
:1066D000041B02D1400648BF89B26F2A4C482B6088
:1066E00014BF4FF00A0E4FF0080E0023626884F8C2
:1066F0004330002AA26051DB236823F004032360A7
:1067000000294BD1002A7BD1E146BEF1080F56D0BB
:10671000ACEB0903236183E72B681A6804332B6011
:1067200004F1420984F842200120B4E72B68626832
:10673000191D2960D3F8009000214846FFF748FE54
:10674000002863D0A0EB09006060A4E7236843F051
:106750002003236078222F4884F845202A6813F00C
:10676000800F52F8041B03D113F0400F18BF89B2F9
:106770002A60DA0744BF43F02003236019B9236875
:1067800023F0200323604FF0100EAEE7582384F867
:1067900045301F482368E1E72368DBE77546E1469B
:1067A000B1FBF5F305FB131A0A46AA4210F80A10CA
:1067B00009F8011D1946F3D2BEF1080FA8D12368CC
:1067C000DD07A5D5626823699A42A1DC302309F868
:1067D000013C09F1FF399BE719801EE7B2F900106F
:1067E000084668E72D20002AA26084F8430002DBF7
:1067F00023F0040323600A2505484942AE46CEE74C
:10680000037884F8423004F142097EE7606842E789
:10681000A86F0000BC6F00005B74696D65636173F5
:10682000745D20647269766572206572726F7200A1
:10683000666F6C6C6F7765720054696D6543617348
:10684000742073746172742E206E6F64655F696466
:106850003D257520686F703D257520726F6C653D14
:106860002573206E74783D257520766D6F643D2507
:1068700075207072655F70323D2575206170705FA4
:10688000646174613D2575207061796C6F61643D50
:1068900025750A005B74696D65636173745D2074AE
:1068A000696D696E673A2070315F736C6F743D2556
:1068B00075207573207072655F70325F73756273D7
:1068C0006C6F743D25752075732070325F7375622F
:1068D000736C6F743D2575207573202870726F631B
:1068E0003D7B70312F70323A25752C7070323A250D
:1068F000757D2072616D703D25752070315F616915
:10690000723D25752070325F6169723D2575206684
:106910006173745F72753D25752074633D256C75D8
:10692000292074785F6D696E5F61726D3D257520F9
:1069300070317B72785F6C6561643D25757D207078
:1069400070327B67756172643D25757D2070327B86
:1069500072785F6C6561643D2575206E6F64657348
:106960003D25752067756172643D25757D206761E1
:10697000703D25750A005B74696D65636173745DB4
:10698000205258207363616E20656E61626C6520D1
:106990006661696C65643A2072633D2564206661B6
:1069A000696C733D256C750A005B74696D65636184
:1069B00073745D2077616974696E677B69643D25D6
:1069C000752C726F756E643D256C757D0A005B7465
:1069D000696D65636173745D20736C6F74206D699C
:1069E00073733A20736C6F743D2575206E6F773D1D
:1069F000256C752073746172743D256C750A005B9B
:106A000074696D65636173745D2054582070617999
:106A10006C6F6164206275696C64206661696C6585
:106A200064005B74696D65636173745D2054582004
:106A30007363686564756C65206661696C65643A4A
:106A4000206E6F773D256C7520646561646C696E9E
:106A5000653D256C7520736C61636B3D256C64200E
:106A60007469636B73206661696C733D256C750A8C
:106A7000005B74696D65636173745D207072652D70
:106A80007032206D6973733A20736C6F743D257595
:106A9000207375623D2575206E6F773D256C7520DE
:106AA000646561646C696E653D256C750A005B7494
:106AB000696D65636173745D207072652D7032203D
:106AC0005458207363686564756C65206661696CF1
:106AD00065643A20736C6F743D2575207375623D53
